:020000040800F2
:1000000000C0002055050008B1020008B502000834
:10001000B9020008BD020008C1020008000000008B
:10002000000000000000000000000000C502000801
:10003000C902000800000000CD02000829050008E0
:100040009D0500089D0500089D0500089D05000808
:100050009D0500089D0500089D0500089D050008F8
:100060009D0500089D0500089D0500089D050008E8
:100070009D0500089D0500089D0500089D050008D8
:100080009D0500089D0500089D0500089D050008C8
:100090009D0500089D0500089D0500089D050008B8
:1000A0009D0500089D0500089D0500089D050008A8
:1000B0009D0500089D0500089D0500089D05000898
:1000C0009D0500089D0500089D0500089D05000888
:1000D0009D0500089D0500089D0500089D05000878
:1000E0009D0500089D0500089D0500089D05000868
:1000F0009D0500089D0500089D0500089D05000858
:100100009D0500089D0500089D0500089D05000847
:100110009D0500089D0500089D0500089D05000837
:100120009D0500089D0500089D0500089D05000827
:1001300000000000000000000000000000000000BF
:1001400000000000000000000000000000000000AF
:10015000000000000000000000000000000000009F
:10016000000000000000000000000000000000008F
:10017000000000000000000000000000000000007F
:10018000000000000000000000000000000000006F
:10019000000000000000000000000000000000005F
:1001A000000000000000000000000000000000004F
:1001B000000000000000000000000000000000003F
:1001C000000000000000000000000000000000002F
:1001D000000000000000000000000000000000001F
:0401E0005FF8E0F1F3
:1001E400044B05481B1A062B02D9044B03B11847CC
:1001F400704700BF2B0400202804002000000000EA
:1002040005490648091A891001EBD171491002D039
:10021400034B03B11847704728040020280400202A
:100224000000000010B5064C237843B9FFF7D8FF4F
:10023400044B13B10448AFF300800123237010BDB5
:100244002804002000000000E401000808B5084B61
:100254001BB108480849AFF300800848036813B984
:10026400BDE80840CCE7064B002BF9D09847F7E7E8
:1002740000000000E40100082C04002028040020F1
:100284000000000008B500F087F800F03BF900F02A
:100294000BF9002000F024F9322000F04BF9012082
:1002A40000F01EF9322000F045F9F2E7704700BF74
:1002B400FEE700BFFEE700BFFEE700BFFEE700BFAA
:1002C400704700BF704700BF704700BF82B0002373
:1002D400019300932C4A136843F4803313602A4B30
:1002E4001B6803F400330093019B01330193009BCB
:1002F4001BB9019BB3F5A06FF1D1234B1B6813F419
:10030400003F02D00123009301E000230093009BEF
:10031400012B36D11D4B1A6842F010021A601A687C
:1003240022F003021A601A6842F002021A60A3F56E
:1003340080535A685A605A685A605A6842F4806214
:100344005A605A6822F47C125A605A6842F4E812DD
:100354005A601A6842F080721A600B4B1B6813F0E3
:10036400007FFAD0084B5A6822F003025A605A6898
:1003740042F002025A60044B5B6803F00C03082B42
:10038400F9D102B0704700BF0010024000200240C3
:1003940008B5FFF79BFF08BD08B5104B1A6842F07B
:1003A40001021A6059680E4A0A405A601A6822F01B
:1003B400847222F480321A601A6822F480221A604D
:1003C4005A6822F4FE025A604FF41F029A60FFF743
:1003D400DFFF4FF00062034B9A6008BD001002403B
:1003E4000000FFF800ED00E0F0B5CB7803F00F0259
:1003F400154613F0100F01D08D7815430B78E3B137
:100404000668002216E0012393400C881C409C429D
:100414000FD197000F24BC4026EA040605FA07F41E
:100424002643CC78282C01D1436102E0482C00D12A
:1004340003610132072AE6D906600B88FF2B20D915
:10044400476800241AE004F10802012393400A8853
:100454001A409A4211D14FEA840E0F2202FA0EF684
:1004640027EA060205FA0EF71743CA78282A00D1AC
:100474004361CA78482A00D103610134072CE2D9C8
:100484004760F0BD016170474161704721B1054B80
:100494009A69104398617047024A936923EA0000FD
:1004A400906170470010024030B583B004200121F0
:1004B400FFF7ECFF0224ADF8044010238DF8073059
:1004C40003238DF80630054D284601A9FFF78CFF5C
:1004D40028462146FFF7D8FF03B030BD000801408D
:1004E40008B538B900F1804000F584300221FFF7E7
:1004F400CBFF08BD02480221FFF7C4FF08BD00BFBF
:1005040000080140054B47225A60F021044A82F852
:10051400231000229A6007221A60704710E000E05E
:1005240000ED00E0024A1368013B1360704700BF0E
:10053400440400204FF47A7303FB00F0034B18606B
:10054400024B1B68002BFBD1704700BF4404002002
:10055400002103E00B4B5B58435004310A480B4B1A
:1005640042189A42F6D30A4A02E0002342F8043BB6
:10057400084B9A42F9D3FFF70FFF00F02BF8FFF76F
:1005840081FE70470C0700080000002028040020AA
:100594002804002048040020FEE700000146002053
:1005A4000246034600F03EB838B5084B084DED1A34
:1005B400AC1018BFED1805D0013C55F8043D984720
:1005C400002CF9D1BDE8384000F092B808070008C3
:1005D4000C07000870B50F4E0F4D761BB61018BFF0
:1005E400002405D0013455F8043B9847A642F9D1BC
:1005F4000A4E0B4D00F076F8761BB61018BF002497
:1006040006D0013455F8043B9847A642F9D170BD91
:1006140070BD00BF000700080007000808070008B5
:10062400000700082DE9F047254C06462568884652
:10063400D5F8484192469946C4B360681F2817DC30
:10064400411C76B104EB8003C3F888A0D4F8885128
:10065400012282401543022EC4F88851C3F8089140
:100664001ED0831C6160002044F82380BDE8F0871D
:10067400144B03B34FF4C870AFF300800446D0B1F9
:10068400D5F84831002784E888003846C5F8484141
:100694000121C4F88871C4F88C71002EE1D0D1E72F
:1006A400D4F88C311A43C4F88C21DAE705F5A67422
:1006B400C5F84841C1E74FF0FF30BDE8F08700BFFF
:1006C400E406000800000000024B13B10248FFF7E3
:1006D40065BF704700000000AD050008430000003E
:1006E40000000020F8B500BFF8BC08BC9E46704767
:0C06F400F8B500BFF8BC08BC9E4670477B
:08070000CD06000851020008BB
:0407080029020008BA
:10070C0000000000EC02002054030020BC03002079
:10071C0000000000000000000000000000000000CD
:10072C0000000000000000000000000000000000BD
:10073C0000000000E00600080000000000000000BF
:10074C00000000000000000000000000000000009D
:10075C00000000000000000000000000000000008D
:10076C00000000000000000000000000000000007D
:10077C00000000000000000000000000000000006D
:10078C00000000000000000000000000000000005D
:10079C00000000000000000000000000000000004D
:1007AC00000000000000000001000000000000003C
:1007BC000E33CDAB34126DE6ECDE05000B00000001
:1007CC00000000000000000000000000000000001D
:1007DC00000000000000000000000000000000000D
:1007EC0000000000000000000000000000000000FD
:1007FC0000000000000000000000000000000000ED
:040000050800055595
:00000001FF
