:020000040800F2
:1000000000C0002025060008790300087B030008D3
:100010007D0300087F030008810300080000000042
:100020000000000000000000000000008303000842
:10003000850300080000000087030008F905000898
:100040006D0600086D0600086D0600086D060008C4
:100050006D0600086D0600086D0600086D060008B4
:100060006D0600086D0600086D0600086D060008A4
:100070006D0600086D0600086D0600086D06000894
:100080006D0600086D0600086D0600086D06000884
:100090006D0600086D0600086D0600086D06000874
:1000A0006D0600086D0600086D0600086D06000864
:1000B0006D0600086D0600086D0600086D06000854
:1000C0006D0600086D0600086D0600086D06000844
:1000D0006D0600086D0600086D0600086D06000834
:1000E0006D0600086D0600086D0600086D06000824
:1000F0006D0600086D0600086D0600086D06000814
:100100006D0600086D0600086D0600086D06000803
:100110006D0600086D0600086D0600086D060008F3
:100120006D0600086D0600086D0600086D060008E3
:1001300000000000000000000000000000000000BF
:1001400000000000000000000000000000000000AF
:10015000000000000000000000000000000000009F
:10016000000000000000000000000000000000008F
:10017000000000000000000000000000000000007F
:10018000000000000000000000000000000000006F
:10019000000000000000000000000000000000005F
:1001A000000000000000000000000000000000004F
:1001B000000000000000000000000000000000003F
:1001C000000000000000000000000000000000002F
:1001D000000000000000000000000000000000001F
:0401E0005FF8E0F1F3
:1001E4000348044B834202D0034B03B118477047C2
:1001F40030040020300400200000000005480649B7
:100204000B1AD90F01EBA301491002D0034B03B120
:10021400184770473004002030040020000000001C
:1002240010B5064C237843B9FFF7DAFF044B13B13A
:100234000448AFF300800123237010BD3004002074
:1002440000000000E401000808B5044B1BB1044998
:100254000448AFF30080BDE80840CFE70000000089
:1002640034040020E4010008002301461A4618461D
:1002740000F03AB838B5084B084D5B1B9C1007D00A
:10028400043B1D44013C55F804399847002CF9D12E
:10029400BDE8384000F0FCB9AC060008A806000828
:1002A40070B50D4E0D4D761BB61006D0002455F8D2
:1002B400043B01349847A642F9D1094E094D00F098
:1002C400E1F9761BB61006D0002455F8043B01343E
:1002D4009847A642F9D170BDA0060008A006000800
:1002E400A8060008A006000870B5174C2568D5F8C4
:1002F4004841DCB165681F2D23DC80B14FF0010C4F
:1003040004EB850ECEF88820D4F888610CFA05F247
:1003140016430228C4F88861CEF808310BD06B1C50
:1003240002356360002044F8251070BD05F5A674FD
:10033400C5F84841DEE7D4F88C311343C4F88C3156
:10034400EDE74FF0FF3070BD8406000808B500F0FB
:100354007FF800F03FF900F00FF9002000F028F9D1
:10036400322000F04FF9012000F022F9322000F091
:1003740049F9F2E77047FEE7FEE7FEE7FEE770475C
:100384007047704782B00023019300932C4A13688E
:1003940043F4803313602A4B1B6803F40033009347
:1003A400019B01330193009B1BB9019BB3F5A06F23
:1003B400F1D1234B1B6813F4003F06D001230093B3
:1003C400009B012B04D002B0704700230093F7E791
:1003D4001C4B1A6842F010021A601A6822F00302D9
:1003E4001A601A6842F002021A60A3F580535A6830
:1003F4005A605A685A605A6842F480625A605A686D
:1004040022F47C125A605A6842F4E8125A601A685C
:1004140042F080721A600A4B1B6813F0007FFAD016
:10042400074B5A6822F003025A605A6842F00202EB
:100434005A60034B5B6803F00C03082BF9D1C2E745
:10044400001002400020024008B5FFF79BFF08BDE2
:1004540008B5104B1A6842F001021A6059680E4A36
:100464000A405A601A6822F0847222F480321A60B8
:100474001A6822F480221A605A6822F4FE025A6032
:100484004FF41F029A60FFF7DFFF044B4FF0006246
:100494009A6008BD001002400000FFF800ED00E083
:1004A40030B5CB7803F00F02964613F0100F03D04B
:1004B40091F802E04EEA020E0B7803B304680023BD
:1004C40001E042610133072B18D801229A40B1F8A8
:1004D40000C032EA0C05F5D14FEA830C0F2505FA6A
:1004E4000CF524EA05040EFA0CFC4CEA0404CD785D
:1004F400282DE6D0482DE5D10261E3E704600B889E
:10050400FF2B25D94468002303E0CD78482D1CD067
:100514000133072B1BD803F1080C012202FA0CF259
:10052400B1F800C032EA0C05F2D14FEA830C0F2572
:1005340005FA0CF524EA05040EFA0CFC4CEA040452
:10054400CD78282DE1D14261DFE70261E0E7446024
:1005540030BD0161704741617047000021B1054A17
:100564009369184390617047024A936923EA000033
:10057400906170470010024030B583B0012104201F
:10058400FFF7ECFF0225ADF8045010238DF8073077
:1005940003238DF80630054C01A92046FFF780FFA0
:1005A40029462046FFF7D7FF03B030BD00080140BD
:1005B40008B538B9022100F1804000F58430FFF716
:1005C400CAFF08BD02210248FFF7C3FFF9E700BFD5
:1005D400000801404FF0E02347225A61044AF02109
:1005E40082F8231000229A6107221A61704700BF23
:1005F40000ED00E0024A1368013B1360704700BF3E
:100604004C0400204FF47A7303FB00F0034B186092
:10061400024B1B68002BFBD1704700BF4C04002029
:10062400002103E00B4B5B58435004310A480B4B49
:1006340042189A42F6D30A4A02E0002342F8043BE5
:10064400084B9A42F9D3FFF703FFFFF729FEFFF7A0
:100654007DFE7047AC060008000000203004002036
:100664003004002050040020FEE70000024B13B1C8
:100674000248FFF7F9BD7047000000007902000846
:1006840008000020F8B500BFF8BC08BC9E467047BF
:0C069400F8B500BFF8BC08BC9E467047DB
:0806A000710600084D0200087C
:0406A800250200081F
:1006AC00080000200000000000000000F402002000
:1006BC005C030020C40300200000000000000000C8
:1006CC00000000000000000000000000000000001E
:1006DC00000000000000000000000000000000000E
:1006EC0000000000000000000000000000000000FE
:1006FC0000000000000000000000000000000000EE
:10070C0000000000000000000000000000000000DD
:10071C0000000000000000000000000000000000CD
:10072C0000000000000000000000000000000000BD
:10073C0000000000000000000000000000000000AD
:10074C00000000000000000000000000000000009D
:10075C0001000000000000000E33CDAB34126DE63A
:10076C00ECDE05000B0000000000000000000000A3
:10077C00000000000000000000000000000000006D
:10078C00000000000000000000000000000000005D
:10079C00000000000000000000000000000000004D
:1007AC00000000000000000000000000000000003D
:0400000508000625C4
:00000001FF
